{
  "contractName": "VotingSystem",
  "abi": [
    {
      "inputs": [],
      "stateMutability": "nonpayable",
      "type": "constructor"
    },
    {
      "anonymous": false,
      "inputs": [
        {
          "indexed": false,
          "internalType": "address",
          "name": "voter",
          "type": "address"
        },
        {
          "indexed": false,
          "internalType": "string",
          "name": "partyName",
          "type": "string"
        }
      ],
      "name": "VoteCast",
      "type": "event"
    },
    {
      "inputs": [
        {
          "internalType": "address",
          "name": "",
          "type": "address"
        }
      ],
      "name": "hasVoted",
      "outputs": [
        {
          "internalType": "bool",
          "name": "",
          "type": "bool"
        }
      ],
      "stateMutability": "view",
      "type": "function",
      "constant": true
    },
    {
      "inputs": [],
      "name": "owner",
      "outputs": [
        {
          "internalType": "address",
          "name": "",
          "type": "address"
        }
      ],
      "stateMutability": "view",
      "type": "function",
      "constant": true
    },
    {
      "inputs": [
        {
          "internalType": "uint256",
          "name": "",
          "type": "uint256"
        }
      ],
      "name": "parties",
      "outputs": [
        {
          "internalType": "string",
          "name": "partyName",
          "type": "string"
        },
        {
          "internalType": "uint256",
          "name": "totalVotes",
          "type": "uint256"
        }
      ],
      "stateMutability": "view",
      "type": "function",
      "constant": true
    },
    {
      "inputs": [
        {
          "internalType": "address",
          "name": "",
          "type": "address"
        }
      ],
      "name": "voterParty",
      "outputs": [
        {
          "internalType": "uint256",
          "name": "",
          "type": "uint256"
        }
      ],
      "stateMutability": "view",
      "type": "function",
      "constant": true
    },
    {
      "inputs": [
        {
          "internalType": "uint256",
          "name": "partyIndex",
          "type": "uint256"
        }
      ],
      "name": "vote",
      "outputs": [],
      "stateMutability": "nonpayable",
      "type": "function"
    },
    {
      "inputs": [
        {
          "internalType": "uint256",
          "name": "partyIndex",
          "type": "uint256"
        }
      ],
      "name": "getPartyVotes",
      "outputs": [
        {
          "internalType": "uint256",
          "name": "",
          "type": "uint256"
        }
      ],
      "stateMutability": "view",
      "type": "function",
      "constant": true
    },
    {
      "inputs": [],
      "name": "getAllPartyVotes",
      "outputs": [
        {
          "internalType": "string[3]",
          "name": "",
          "type": "string[3]"
        },
        {
          "internalType": "uint256[3]",
          "name": "",
          "type": "uint256[3]"
        }
      ],
      "stateMutability": "view",
      "type": "function",
      "constant": true
    },
    {
      "inputs": [
        {
          "internalType": "address",
          "name": "voter",
          "type": "address"
        }
      ],
      "name": "getVoterParty",
      "outputs": [
        {
          "internalType": "uint256",
          "name": "",
          "type": "uint256"
        }
      ],
      "stateMutability": "view",
      "type": "function",
      "constant": true
    }
  ],
  "bytecode": "0x60806040523480156200001157600080fd5b50336000806101000a81548173ffffffffffffffffffffffffffffffffffffffff021916908373ffffffffffffffffffffffffffffffffffffffff16021790555060405180604001604052806040518060400160405280600781526020017f5061727479204100000000000000000000000000000000000000000000000000815250815260200160008152506003600060038110620000d9577f4e487b7100000000000000000000000000000000000000000000000000000000600052603260045260246000fd5b600202016000820151816000019080519060200190620000fb9291906200027d565b506020820151816001015590505060405180604001604052806040518060400160405280600781526020017f506172747920420000000000000000000000000000000000000000000000000081525081526020016000815250600360016003811062000190577f4e487b7100000000000000000000000000000000000000000000000000000000600052603260045260246000fd5b600202016000820151816000019080519060200190620001b29291906200027d565b506020820151816001015590505060405180604001604052806040518060400160405280600781526020017f506172747920430000000000000000000000000000000000000000000000000081525081526020016000815250600360026003811062000247577f4e487b7100000000000000000000000000000000000000000000000000000000600052603260045260246000fd5b600202016000820151816000019080519060200190620002699291906200027d565b506020820151816001015590505062000392565b8280546200028b906200032d565b90600052602060002090601f016020900481019282620002af5760008555620002fb565b82601f10620002ca57805160ff1916838001178555620002fb565b82800160010185558215620002fb579182015b82811115620002fa578251825591602001919060010190620002dd565b5b5090506200030a91906200030e565b5090565b5b80821115620003295760008160009055506001016200030f565b5090565b600060028204905060018216806200034657607f821691505b602082108114156200035d576200035c62000363565b5b50919050565b7f4e487b7100000000000000000000000000000000000000000000000000000000600052602260045260246000fd5b61100a80620003a26000396000f3fe608060405234801561001057600080fd5b50600436106100885760003560e01c8063646a11ff1161005b578063646a11ff1461013957806370651a18146101585780638da5cb5b14610189578063b7cde0fa146101a757610088565b80630121b93f1461008d57806306dd6e33146100a957806309eef43e146100d95780632acf630414610109575b600080fd5b6100a760048036038101906100a291906108ff565b6101d7565b005b6100c360048036038101906100be91906108d6565b610417565b6040516100d09190610d34565b60405180910390f35b6100f360048036038101906100ee91906108d6565b6104ec565b6040516101009190610c89565b60405180910390f35b610123600480360381019061011e91906108ff565b61050c565b6040516101309190610d34565b60405180910390f35b61014161059a565b60405161014f929190610c59565b60405180910390f35b610172600480360381019061016d91906108ff565b610775565b604051610180929190610ca4565b60405180910390f35b610191610827565b60405161019e9190610c0e565b60405180910390f35b6101c160048036038101906101bc91906108d6565b61084b565b6040516101ce9190610d34565b60405180910390f35b6003811061021a576040517f08c379a000000000000000000000000000000000000000000000000000000000815260040161021190610d14565b60405180910390fd5b600160003373ffffffffffffffffffffffffffffffffffffffff1673ffffffffffffffffffffffffffffffffffffffff16815260200190815260200160002060009054906101000a900460ff16156102a7576040517f08c379a000000000000000000000000000000000000000000000000000000000815260040161029e90610cd4565b60405180910390fd5b6001600382600381106102e3577f4e487b7100000000000000000000000000000000000000000000000000000000600052603260045260246000fd5b6002020160010160008282546102f99190610deb565b9250508190555060018060003373ffffffffffffffffffffffffffffffffffffffff1673ffffffffffffffffffffffffffffffffffffffff16815260200190815260200160002060006101000a81548160ff02191690831515021790555080600260003373ffffffffffffffffffffffffffffffffffffffff1673ffffffffffffffffffffffffffffffffffffffff168152602001908152602001600020819055507f866dc605853954ffa419910eb05d67f430efec2e7db7ce135bf55565667a4ab433600383600381106103f7577f4e487b7100000000000000000000000000000000000000000000000000000000600052603260045260246000fd5b6002020160000160405161040c929190610c29565b60405180910390a150565b6000600160008373ffffffffffffffffffffffffffffffffffffffff1673ffffffffffffffffffffffffffffffffffffffff16815260200190815260200160002060009054906101000a900460ff166104a5576040517f08c379a000000000000000000000000000000000000000000000000000000000815260040161049c90610cf4565b60405180910390fd5b600260008373ffffffffffffffffffffffffffffffffffffffff1673ffffffffffffffffffffffffffffffffffffffff168152602001908152602001600020549050919050565b60016020528060005260406000206000915054906101000a900460ff1681565b600060038210610551576040517f08c379a000000000000000000000000000000000000000000000000000000000815260040161054890610d14565b60405180910390fd5b6003826003811061058b577f4e487b7100000000000000000000000000000000000000000000000000000000600052603260045260246000fd5b60020201600101549050919050565b6105a2610863565b6105aa61088a565b6105b2610863565b6105ba61088a565b60005b60038110156107685760038160038110610600577f4e487b7100000000000000000000000000000000000000000000000000000000600052603260045260246000fd5b60020201600001805461061290610ebc565b80601f016020809104026020016040519081016040528092919081815260200182805461063e90610ebc565b801561068b5780601f106106605761010080835404028352916020019161068b565b820191906000526020600020905b81548152906001019060200180831161066e57829003601f168201915b50505050508382600381106106c9577f4e487b7100000000000000000000000000000000000000000000000000000000600052603260045260246000fd5b60200201819052506003816003811061070b577f4e487b7100000000000000000000000000000000000000000000000000000000600052603260045260246000fd5b600202016001015482826003811061074c577f4e487b7100000000000000000000000000000000000000000000000000000000600052603260045260246000fd5b602002018181525050808061076090610eee565b9150506105bd565b5081819350935050509091565b6003816003811061078557600080fd5b6002020160009150905080600001805461079e90610ebc565b80601f01602080910402602001604051908101604052809291908181526020018280546107ca90610ebc565b80156108175780601f106107ec57610100808354040283529160200191610817565b820191906000526020600020905b8154815290600101906020018083116107fa57829003601f168201915b5050505050908060010154905082565b60008054906101000a900473ffffffffffffffffffffffffffffffffffffffff1681565b60026020528060005260406000206000915090505481565b60405180606001604052806003905b60608152602001906001900390816108725790505090565b6040518060600160405280600390602082028036833780820191505090505090565b6000813590506108bb81610fa6565b92915050565b6000813590506108d081610fbd565b92915050565b6000602082840312156108e857600080fd5b60006108f6848285016108ac565b91505092915050565b60006020828403121561091157600080fd5b600061091f848285016108c1565b91505092915050565b60006109348383610a3e565b905092915050565b60006109488383610bf0565b60208301905092915050565b61095d81610e41565b82525050565b600061096e82610d78565b6109788185610db3565b93508360208202850161098a85610d4f565b8060005b858110156109c657848403895281516109a78582610928565b94506109b283610d99565b925060208a0199505060018101905061098e565b50829750879550505050505092915050565b6109e181610d83565b6109eb8184610dbe565b92506109f682610d59565b8060005b83811015610a27578151610a0e878261093c565b9650610a1983610da6565b9250506001810190506109fa565b505050505050565b610a3881610e53565b82525050565b6000610a4982610d8e565b610a538185610dc9565b9350610a63818560208601610e89565b610a6c81610f95565b840191505092915050565b6000610a8282610d8e565b610a8c8185610dda565b9350610a9c818560208601610e89565b610aa581610f95565b840191505092915050565b60008154610abd81610ebc565b610ac78186610dda565b94506001821660008114610ae25760018114610af457610b27565b60ff1983168652602086019350610b27565b610afd85610d63565b60005b83811015610b1f57815481890152600182019150602081019050610b00565b808801955050505b50505092915050565b6000610b3d601783610dda565b91507f596f75206861766520616c726561647920766f7465642e0000000000000000006000830152602082019050919050565b6000610b7d601b83610dda565b91507f54686973206164647265737320686173206e6f7420766f7465642e00000000006000830152602082019050919050565b6000610bbd601483610dda565b91507f496e76616c696420706172747920696e6465782e0000000000000000000000006000830152602082019050919050565b610bf981610e7f565b82525050565b610c0881610e7f565b82525050565b6000602082019050610c236000830184610954565b92915050565b6000604082019050610c3e6000830185610954565b8181036020830152610c508184610ab0565b90509392505050565b60006080820190508181036000830152610c738185610963565b9050610c8260208301846109d8565b9392505050565b6000602082019050610c9e6000830184610a2f565b92915050565b60006040820190508181036000830152610cbe8185610a77565b9050610ccd6020830184610bff565b9392505050565b60006020820190508181036000830152610ced81610b30565b9050919050565b60006020820190508181036000830152610d0d81610b70565b9050919050565b60006020820190508181036000830152610d2d81610bb0565b9050919050565b6000602082019050610d496000830184610bff565b92915050565b6000819050919050565b6000819050919050565b60008190508160005260206000209050919050565b600060039050919050565b600060039050919050565b600081519050919050565b6000602082019050919050565b6000602082019050919050565b600081905092915050565b600081905092915050565b600082825260208201905092915050565b600082825260208201905092915050565b6000610df682610e7f565b9150610e0183610e7f565b9250827fffffffffffffffffffffffffffffffffffffffffffffffffffffffffffffffff03821115610e3657610e35610f37565b5b828201905092915050565b6000610e4c82610e5f565b9050919050565b60008115159050919050565b600073ffffffffffffffffffffffffffffffffffffffff82169050919050565b6000819050919050565b60005b83811015610ea7578082015181840152602081019050610e8c565b83811115610eb6576000848401525b50505050565b60006002820490506001821680610ed457607f821691505b60208210811415610ee857610ee7610f66565b5b50919050565b6000610ef982610e7f565b91507fffffffffffffffffffffffffffffffffffffffffffffffffffffffffffffffff821415610f2c57610f2b610f37565b5b600182019050919050565b7f4e487b7100000000000000000000000000000000000000000000000000000000600052601160045260246000fd5b7f4e487b7100000000000000000000000000000000000000000000000000000000600052602260045260246000fd5b6000601f19601f8301169050919050565b610faf81610e41565b8114610fba57600080fd5b50565b610fc681610e7f565b8114610fd157600080fd5b5056fea264697066735822122031bb1d35c324c3bd0dc744e6572fc2957a4199d263d9bc66d590bf54c3e090fd64736f6c63430008000033",
  "immutableReferences": {},
  "source": "// SPDX-License-Identifier: MIT\r\npragma solidity ^0.8.0;\r\n\r\ncontract VotingSystem {\r\n    struct Party {\r\n        string partyName;\r\n        uint256 totalVotes;\r\n    }\r\n\r\n    address public owner;\r\n    mapping(address => bool) public hasVoted;       // Tracks if an address has voted\r\n    mapping(address => uint256) public voterParty;  // Stores the party index a voter voted for\r\n    Party[3] public parties;                        // Array to store the 3 fixed parties\r\n\r\n    // Events\r\n    event VoteCast(address voter, string partyName);\r\n\r\n    // Modifier to restrict certain functions to the owner\r\n    modifier onlyOwner() {\r\n        require(msg.sender == owner, \"Only the owner can perform this action.\");\r\n        _;\r\n    }\r\n\r\n    // Constructor to set the 3 fixed parties and the contract deployer as the owner\r\n    constructor() {\r\n        owner = msg.sender;\r\n\r\n        // Initialize the 3 fixed parties\r\n        parties[0] = Party({partyName: \"Party A\", totalVotes: 0});\r\n        parties[1] = Party({partyName: \"Party B\", totalVotes: 0});\r\n        parties[2] = Party({partyName: \"Party C\", totalVotes: 0});\r\n    }\r\n\r\n    // Function to vote for a party by index (0, 1, or 2)\r\n    function vote(uint partyIndex) public {\r\n        require(partyIndex < 3, \"Invalid party index.\");\r\n        require(!hasVoted[msg.sender], \"You have already voted.\");\r\n\r\n        // Register the vote\r\n        parties[partyIndex].totalVotes += 1;\r\n        hasVoted[msg.sender] = true;        // Mark voter as having voted\r\n        voterParty[msg.sender] = partyIndex; // Store the party index the voter voted for\r\n\r\n        emit VoteCast(msg.sender, parties[partyIndex].partyName);\r\n    }\r\n\r\n    // Get total votes for a specific party by index\r\n    function getPartyVotes(uint partyIndex) public view returns (uint256) {\r\n        require(partyIndex < 3, \"Invalid party index.\");\r\n        return parties[partyIndex].totalVotes;\r\n    }\r\n\r\n    // Get all parties' names and their total votes\r\n    function getAllPartyVotes() public view returns (string[3] memory, uint256[3] memory) {\r\n        string[3] memory names;\r\n        uint256[3] memory votes;\r\n\r\n        for (uint i = 0; i < 3; i++) {\r\n            names[i] = parties[i].partyName;\r\n            votes[i] = parties[i].totalVotes;\r\n        }\r\n\r\n        return (names, votes);\r\n    }\r\n\r\n    // Get the party index a voter voted for\r\n    function getVoterParty(address voter) public view returns (uint256) {\r\n        require(hasVoted[voter], \"This address has not voted.\");\r\n        return voterParty[voter];\r\n    }\r\n}\r\n",
  "sourcePath": "C:\\Users\\mandg\\OneDrive\\Desktop\\One Nation portal\\contracts\\VotingSystem.sol",
  "compiler": {
    "name": "solc",
    "version": "0.8.0+commit.c7dfd78e.Emscripten.clang"
  },
  "schemaVersion": "3.4.16",
  "updatedAt": "2024-11-10T12:44:31.588Z",
  "networkType": "ethereum",
  "devdoc": {
    "kind": "dev",
    "methods": {},
    "version": 1
  },
  "userdoc": {
    "kind": "user",
    "methods": {},
    "version": 1
  }
}